:100000000C9462000C948A000C948A000C948A0070
:100010000C948A000C948A000C948A000C941B06A1
:100020000C948A000C948A000C948A000C948A0028
:100030000C948A000C948A000C948A000C948A0018
:100040000C9479050C948A000C94E9050C94C30572
:100050000C948A000C948A000C948A000C948A00F8
:100060000C948A000C948A00000000080002010031
:100070000003040700000000000000000000000072
:10008000240027002A000000000023002600290089
:1000900000000000250028002B00040404040404D0
:1000A0000404020202020202030303030303010227
:1000B00004081020408001020408102001020408F6
:1000C0001020400611241FBECFEFD8E0DEBFCDBF09
:1000D00025E0ACE5B4E001C01D92AD31B207E1F717
:1000E00014E0A0E0B1E0E8EDF9E102C005900D9266
:1000F000AC35B107D9F710E0C2E6D0E004C02197D3
:10010000FE010E94D30AC136D107C9F70E94C10679
:100110000C94EA0C0C94000090E0FC01E255FF4FB7
:10012000249186569F4FFC018491882399F090E09A
:10013000880F991FFC01E458FF4FA591B491FC0171
:10014000E057FF4F859194918FB7F894EC91E22B93
:10015000EC938FBF0895833081F028F4813099F0BB
:100160008230A9F008958730A9F08830C9F0843032
:10017000B1F4809180008F7D03C0809180008F77E3
:1001800080938000089584B58F7784BD089584B5E9
:100190008F7DFBCF8091B0008F778093B000089562
:1001A0008091B0008F7DF9CFCF93DF93282F30E07F
:1001B000F901E859FF4F8491F901E255FF4FD491BD
:1001C000F901E656FF4FC491CC23A1F081110E94A2
:1001D000AB00EC2FF0E0EE0FFF1FEA57FF4FA591A9
:1001E000B491EC91ED2381E090E009F480E0DF919F
:1001F000CF91089580E090E0FACF1F93CF93DF93E3
:10020000282F30E0F901E859FF4F8491F901E255B8
:10021000FF4FD491F901E656FF4FC491CC23A9F0CA
:10022000162F81110E94AB00EC2FF0E0EE0FFF1FA4
:10023000E057FF4FA591B4918FB7F894EC9111114D
:1002400008C0D095DE23DC938FBFDF91CF911F9143
:100250000895DE2BF8CF1F93CF93DF93182FEB0178
:100260000E948C00209739F460E0812FDF91CF91BC
:100270001F910C94FD00CF3FD10511F461E0F5CF43
:10028000E12FF0E0E859FF4FE491E33031F140F421
:10029000E130B1F0E230E1F0C038D1057CF7E4CFD5
:1002A000E73029F1E83059F1E430B1F7809180006E
:1002B000806280938000D0938B00C0938A0004C03A
:1002C00084B5806884BDC7BDDF91CF911F9108952B
:1002D00084B5806284BDC8BDF7CF809180008068FE
:1002E00080938000D0938900C0938800EDCF8091E7
:1002F000B00080688093B000C093B300E5CF8091D8
:10030000B00080628093B000C093B400DDCF8770EE
:10031000806480937C0080917A00806480937A006E
:1003200080917A0086FDFCCF8091780090917900D1
:1003300008953FB7F8948091610490916204A09170
:100340006304B091640426B5A89B05C02F3F19F043
:100350000196A11DB11D3FBFBA2FA92F982F882745
:10036000BC01CD01620F711D811D911D42E0660F20
:10037000771F881F991F4A95D1F708958F929F92F2
:10038000AF92BF92CF92DF92EF92FF926B017C010E
:100390000E9499014B015C01C114D104E104F104F4
:1003A000B9F00E949901681979098A099B09683E88
:1003B00073408105910580F321E0C21AD108E1085C
:1003C000F10888EE880E83E0981EA11CB11CE4CFD2
:1003D000FF90EF90DF90CF90BF90AF909F908F9065
:1003E0000895AF92BF92CF92DF92EF92FF920F9358
:1003F0001F93CF93DF936C017B018B01040F151FBB
:10040000EB015E01AE18BF08C017D10759F0699122
:10041000D601ED91FC910190F081E02DC601099586
:10042000892B79F7C501DF91CF911F910F91FF9033
:10043000EF90DF90CF90BF90AF900895FC01538D67
:10044000448D252F30E0842F90E0821B930B5417AE
:1004500010F0CF96089501970895FC01918D828D3B
:10046000981761F0A28DAE0FBF2FB11D5D968C91D4
:10047000928D9F5F9F73928F90E008958FEF9FEF13
:1004800008952FB7F8948091650490916604A09127
:100490006704B09168042FBF809371049093720435
:1004A000A0937304B093740489E694E00E942D0233
:1004B00097FF26C02FB7F894809165049091660449
:1004C000A0916704B09168042FBF409171045091CE
:1004D00072046091730470917404841B950BA60BD5
:1004E000B70B40916D0450916E0460916F04709150
:1004F000700484179507A607B707B0F28FEF9FEF38
:100500000895FC01918D828D981731F0828DE80F4E
:10051000F11D858D90E008958FEF9FEF0895FC0108
:10052000918D228D892F90E0805C9F4F821B9109D5
:100530008F739927089589E694E00E948F0221E045
:10054000892B09F420E0822F089580E090E0892B28
:1005500029F00E949B0281110C9400000895FC0177
:10056000A48DA80FB92FB11DA35ABF4F2C91848D14
:1005700090E001968F739927848FA689B7892C9371
:10058000A089B1898C91837080648C93938D848DC4
:10059000981306C00288F389E02D80818F7D8083C7
:1005A0000895EF92FF920F931F93CF93DF93EC0187
:1005B00081E0888F9B8D8C8D98131AC0E889F9890A
:1005C000808185FF15C09FB7F894EE89FF8960830D
:1005D000E889F98980818370806480839FBF81E08E
:1005E00090E0DF91CF911F910F91FF90EF900895D0
:1005F000F62E0B8D10E00F5F1F4F0F731127E02EAB
:100600008C8D8E110CC00FB607FCFACFE889F989E2
:10061000808185FFF5CFCE010E94AF02F1CFEB8D37
:10062000EC0FFD2FF11DE35AFF4FF0829FB7F894B6
:100630000B8FEA89FB8980818062CFCFCF93DF93D4
:10064000EC01888D8823B9F0AA89BB89E889F989EA
:100650008C9185FD03C0808186FD0DC00FB607FC1F
:10066000F7CF8C9185FFF2CF808185FFEDCFCE0152
:100670000E94AF02E9CFDF91CF910895FC01019074
:100680000020E9F73197AF01481B590BBC0189E6FF
:1006900094E00C94F1018F929F92AF92BF920F93CE
:1006A0001F93CF93DF93CDB7DEB7A1970FB6F89422
:1006B000DEBF0FBECDBF19A2423008F44AE08E0162
:1006C0000F5D1F4F842E912CB12CA12CA5019401FC
:1006D0000E94B10AE62FB901CA01EA30F4F4E05DE4
:1006E000D801EE938D01232B242B252B79F790E055
:1006F00080E0109719F0CD010E943E03A1960FB63D
:10070000F894DEBF0FBECDBFDF91CF911F910F9147
:10071000BF90AF909F908F900895E95CE1CF0C94CB
:100720003E03CF93DF93FC01448155816081718149
:1007300089E694E00E94F101EC0188E191E00E94D9
:100740003E038C0F9D1FDF91CF910895CF93DF93D0
:100750000E943E03EC0188E191E00E943E038C0F71
:100760009D1FDF91CF9108958BE191E00E94A60338
:1007700070E060E08BE00E942B0170E060E08AE0B6
:100780000E942B0160E086E00E94FD0060E087E0AF
:100790000E94FD0060E088E00E94FD0060E089E0CA
:1007A0000E94FD0085E391E00C94A603CF92DF92B6
:1007B000EF92FF92CF93DF936C01990FEE08FF0841
:1007C000F7FE19C06DE289E694E00E94D102EC01C7
:1007D00066277727CB016C197D098E099F094AE0AE
:1007E0000E944B038C0F9D1FDF91CF91FF90EF90E4
:1007F000DF90CF9008954AE0C701B601DF91CF9115
:10080000FF90EF90DF90CF900C944B03CF93DF934A
:100810000E94D603EC0188E191E00E943E038C0F18
:100820009D1FDF91CF910895EF92FF920F931F9339
:10083000CF93DF93E82EF62ED42FC22F88E491E0D9
:100840000E94A60380E691E00E948F038E2D90E027
:100850000E94D60385E691E00E948F038F2D90E0E1
:100860000E94D6038BE691E00E948F038D2F90E0CB
:100870000E94D60381E791E00E948F038C2F90E0C5
:100880000E94D60387E791E00E948F03C8010E946F
:10089000D6038DE791E00E948F03C8010E940604F1
:1008A0006E2D86E00E94FD006F2D87E00E94FD0006
:1008B0006D2F88E00E94FD006C2F89E00E94FD00F2
:1008C000B8018BE00E942B01B8018AE00E942B0145
:1008D00083E891E00E948F0386E00E94D4000E948A
:1008E000D60386E991E00E948F0387E00E94D4003E
:1008F0000E94D6038CE991E00E948F0388E00E9459
:10090000D4000E94D60382EA91E00E948F0389E01E
:100910000E94D4000E94D60388EA91E00E948F03CF
:100920008BE00E9487010E94D6038EEA91E00E942C
:100930008F038AE00E948701DF91CF911F910F9171
:10094000FF90EF900C940604FC0124813581232B49
:1009500039F421E0FB018081882349F020E007C0C1
:10096000808191810E94CF0C21E0892BB9F7822FE1
:1009700008950F931F93CF93DF93EC0188819981A2
:10098000009759F02A813B812617370730F081E024
:10099000DF91CF911F910F9108958B016F5F7F4F72
:1009A0000E94FE0B009759F0998388831B830A836A
:1009B0002C813D81232B59F7FC011082E8CF80E088
:1009C000E7CFCF93DF93EC0188819981009711F0F5
:1009D0000E94750B198218821D821C821B821A824A
:1009E000DF91CF910895CF93DF93EC0170E060E049
:1009F0000E94B904811105C0CE01DF91CF910C9402
:100A0000E1041D821C826AE171E088819981DF9195
:100A1000CF910C94D80C9F92AF92BF92CF92DF925D
:100A2000EF92FF920F931F93CF93DF93EC016B0133
:100A30005A0179012417350720F48B2D5901E42E32
:100A4000F82E198218821B821A821D821C82CE0106
:100A50000E94F304D60114960D911C91A016B106C4
:100A600058F5E016F10608F48701D601ED91FC91E6
:100A70001197E00FF11F90801082ED90FC90EA0C2E
:100A8000FB1CE114F10471F0F70101900020E9F77B
:100A900031975F01AE18BF08B501CE010E94B904BD
:100AA000811117C0CE010E94E104F601808191817D
:100AB000080F191FD8019C92CE01DF91CF911F9191
:100AC0000F91FF90EF90DF90CF90BF90AF909F90ED
:100AD0000895BD82AC82B701888199810E94D80CAB
:100AE000E4CFFC0180819181009711F00C94750B8B
:100AF00008951F920F920FB60F9211242F933F93D8
:100B00008F939F93AF93BF938091650490916604F8
:100B1000A0916704B09168043091600423E0230F32
:100B20002D3758F50196A11DB11D209360048093C7
:100B3000650490936604A0936704B0936804809161
:100B4000610490916204A0916304B09164040196E1
:100B5000A11DB11D8093610490936204A09363046E
:100B6000B0936404BF91AF919F918F913F912F916A
:100B70000F900FBE0F901F90189526E8230F029636
:100B8000A11DB11DD2CF1F920F920FB60F9211244B
:100B90002F933F934F935F936F937F938F939F9385
:100BA000AF93BF93EF93FF9389E694E00E94AF0267
:100BB000FF91EF91BF91AF919F918F917F916F9135
:100BC0005F914F913F912F910F900FBE0F901F900B
:100BD00018951F920F920FB60F9211242F938F9397
:100BE0009F93EF93FF93E0917904F0917A048081D1
:100BF000E0917F04F091800482FD1BC09081809180
:100C000082048F5F8F7320918304821741F0E091FB
:100C10008204F0E0E759FB4F958F80938204FF91A7
:100C2000EF919F918F912F910F900FBE0F901F907A
:100C300018958081F4CF1F920F920FB60F92112456
:100C40002F933F934F935F936F937F938F939F93D4
:100C5000AF93BF93EF93FF93F0E0E0E00995FF912E
:100C6000EF91BF91AF919F918F917F916F915F9124
:100C70004F913F912F910F900FBE0F901F9018959D
:100C8000CF93DF93E9E6F4E01382128288EE93E0DB
:100C9000A0E0B0E084839583A683B7838AE091E0E7
:100CA0009183808385EC90E09587848784EC90E045
:100CB0009787868780EC90E0918B808B81EC90E029
:100CC000938B828B82EC90E0958B848B86EC90E00A
:100CD000978B868B118E128E138E148EE3EBF0E0C1
:100CE0002491A6E0B5E014962C931497E2EBF0E083
:100CF000E4911596EC9315978FE990E0FC013491FF
:100D0000E32FF0E0EE0FFF1FE057FF4F45915491A6
:100D100017965C934E931697EEE9F0E0E491F0E0BD
:100D2000EE0FFF1FEA57FF4F4591549119965C93C0
:100D30004E931897FC018491E82FF0E0EE0FFF1F0F
:100D4000E458FF4FC591D4911B96DC93CE931A972C
:100D500052961C92529781EC9CE21D969C938E9326
:100D60001C97E8812E2B28831696ED91FC911797FE
:100D7000908114968C91809589238083DF91CF9107
:100D80000895CF93DF93CDB7DEB762970FB6F8948F
:100D9000DEBF0FBECDBF789484B5826084BD84B5BC
:100DA000816084BD85B5826085BD85B5816085BD66
:100DB00080916E00816080936E001092810080911E
:100DC00081008260809381008091810081608093A6
:100DD0008100809180008160809380008091B100CB
:100DE00084608093B1008091B00081608093B000F6
:100DF00080917A00846080937A0080917A0082608A
:100E000080937A0080917A00816080937A0080914B
:100E10007A00806880937A001092C100E091790492
:100E2000F0917A0482E08083E0917504F091760479
:100E30001082E0917704F09178048FEC8083109217
:100E40008104E0917D04F0917E0486E08083E0914E
:100E50007B04F0917C04808180618083E0917B043D
:100E6000F0917C04808188608083E0917B04F09124
:100E70007C04808180688083E0917B04F0917C0415
:100E800080818F7D808384EB91E00E94A6038DECAE
:100E900091E00E94A60383EE91E00E94A6038BE0FE
:100EA0000E948C0086E00E948C0087E00E948C00EB
:100EB0008AE00E948C0088E00E948C0089E00E94F9
:100EC0008C008DEF91E00E94A6030E94B4038AE19A
:100ED00092E00E94A60389E392E00E94A6038EE4BA
:100EE00092E00E94A60329E3422E512C612C712C22
:100EF00090E0292E90E0392E89E694E00E948F023E
:100F0000892B09F49FC01E861D86188A1F861A8A9F
:100F1000198ACE010D960E94F3040E94410297FDAA
:100F20001EC08A309105D9F089831A8209891A89ED
:100F30000F5F1F4FB801CE010D960E94B9048823A0
:100F400061F32D853E8589899A89BE016F5F7F4F48
:100F5000820F931F0E94D80C1A8B098BDECFCD8491
:100F6000DE84C114D10439F0E988FA888601E114DD
:100F7000F10409F074C08DE592E00E948F03CE0168
:100F80000D960E94910368E672E0CE010D960E94D4
:100F9000A404882309F40EC1E0911005F091110515
:100FA000808190910A05892B8083E0910C05F09156
:100FB0000D05808190910A05892B80838BE290E05A
:100FC0000197F1F7E0910C05F0910D05908180916A
:100FD0000A0580958923808380911805882351F024
:100FE000E0911005F0911105908180910A0580959E
:100FF00089238083E0910E05F0910F058081909107
:101000000B05892309F464C090E080E0BC0190E006
:1010100080E0A30192010E94B10AB9012150310977
:10102000283C310510F068EC70E090E080E04AE088
:101030000E944B0388E191E00E943E03CE010D9691
:101040000E9471052114310409F456CF0E949B02BD
:10105000882309F44DCF0E9400004ACF8501580132
:101060008FEFA81AB80AF8018081082E000C990B9E
:101070000E946E0A892B91F7F1E0EF1AF108EC0C4F
:10108000FD1CF7018081082E000C990B0E946E0A4E
:10109000892B39F0E016F10620F0F1E0EF1AF108A3
:1010A000F0CF8FEFE81AF80AA701401B510B5A8BBB
:1010B000498BC016D10620F4B801C6010E94BB0CB2
:1010C000ED85FE8589899A89E80FF91F108253CF33
:1010D0000E949901AB01BC0180911205909113050A
:1010E000B0E0A0E08855994EAF4FBF4F840F951FD9
:1010F000A61FB71F8093140590931505A09316059E
:10110000B0931705E0910E05F0910F058081909145
:101110000B05892381F40E94990100911405109117
:101120001505209116053091170506171707280792
:10113000390740F769CF0E9499012091120530913B
:101140001305620F731F811D911D60931405709329
:1011500015058093160590931705E0910E05F09103
:101160000F05808190910B05892381F00E949901E0
:101170000091140510911505209116053091170561
:10118000061717072807390740F73ECF0E94990135
:101190002091120530911305A90145505109209164
:1011A000140530911505FA01E21BF30BCF01860FF0
:1011B000971F2CCFE988FA88E114F10409F439C1AA
:1011C000CD84DE846CE270E0C6010E94C40C8C0108
:1011D0000C191D09892B11F40FEF1FEFF601EE0D0D
:1011E000FF1DD0801082AD84BE846CE270E0C5012A
:1011F0000E94DF0CEA0CFB1CF701D082009721F45F
:10120000CC24CA94DC2C05C02D853E856C01C21A05
:10121000D30A8CE692E00E948F03C8010E94060464
:101220008DE792E00E948F03C6010E94060410160B
:1012300011060CF00EC10C151D050CF00AC1980129
:1012400050E040E0BE01635F7F4FCE0107960E94F1
:101250000B05A8014F5F5F4F9601BE01635F7F4F93
:10126000CE0101960E940B0589819A81009709F4AD
:101270008DC00E94320A7B01CE0101960E94710549
:1012800029893A89A6014F5F5F4FBE01635F7F4F97
:10129000CE0101960E940B0589819A81812C912CA7
:1012A0005401009719F00E94320A4B01CE010196B9
:1012B0000E9471058FE892E00E948F034B855C8548
:1012C0006F81788589E694E00E94F10182EA92E0DC
:1012D0000E948F03C7010E94D60380EB92E00E9418
:1012E0008F03C4010E9406048AEB92E00E948F03E0
:1012F000CE0107960E94910367ED72E0CE0107963A
:101300000E94A404882309F445C08FED92E00E9456
:10131000A6038BEF92E00E94A60382EB92E00E946C
:101320008F03C4010E94D60384EA92E00E948F03D7
:10133000C7010E940604840120E041E060E081E0F2
:101340000E94140486E193E00E948F03C7010E946B
:10135000D6038AE293E00E94A603B701FF0C880B34
:10136000990B0E94BE018EE293E00E94A6030E94A8
:10137000B4038EE493E00E94A60388E394E00E9405
:10138000A603CE0107960E94710558CE60E070E07A
:10139000CB0171CF6CE673E0CE0107960E94A404E6
:1013A0008823C1F085E793E00E94A60382E993E0D9
:1013B0000E94A603840121E040E061E080E00E94F9
:1013C0001404B701FF0C880B990B0E94BE010E9408
:1013D000B403D3CF6EEA73E0CE0107960E94A40453
:1013E000882361F083EB93E00E94A6038CEC93E0EA
:1013F0000E94A603840120E041E0DFCF64EE73E0A9
:10140000CE0107960E94A404882371F08AEE93E02F
:101410000E94A60384E094E00E94A603840121E0D8
:1014200040E060E081E0CBCF8DE194E00E94A60334
:10143000CECF8CE692E00E948F038FEF9FEF0E9449
:1014400006048DE792E00E948F038FEF9FEF0E94CA
:1014500006048DE394E00E94A60388E394E00E94D2
:10146000A603ECCD1F93FC0199278827BC01E894C3
:1014700011911032E9F3193010F01E30C8F31B320D
:1014800051F01D3249F4689406C00E94590A610F58
:10149000711D811D911D119110531A30B0F33EF44E
:1014A00090958095709561957F4F8F4F9F4F1F91BD
:1014B0000895592F482F372F262F660F771F881F23
:1014C000991F660F771F881F991F620F731F841F54
:1014D000951F660F771F881F991F089591110C940F
:1014E000770A803219F089508550C8F708959927F6
:1014F000882708952F923F924F925F926F927F922A
:101500008F929F92AF92BF92CF92DF92EF92FF9213
:101510000F931F93CF93DF93CDB7DEB7CA1BDB0BBF
:101520000FB6F894DEBF0FBECDBF09942A88398864
:1015300048885F846E847D848C849B84AA84B9846B
:10154000C884DF80EE80FD800C811B81AA81B98177
:10155000CE0FD11D0FB6F894DEBF0FBECDBFED018B
:101560000895A1E21A2EAA1BBB1BFD010DC0AA1FE4
:10157000BB1FEE1FFF1FA217B307E407F50720F0FC
:10158000A21BB30BE40BF50B661F771F881F991F77
:101590001A9469F760957095809590959B01AC01C0
:1015A000BD01CF010895EE0FFF1F0590F491E02DCE
:1015B00009940F931F93CF93DF938230910510F41A
:1015C00082E090E0E0911B05F0911C0530E020E006
:1015D000B0E0A0E0309799F42115310509F44AC034
:1015E000281B390B24303105D8F58A819B81611580
:1015F000710589F1FB0193838283FE0111C0408153
:1016000051810281138148175907E0F048175907A3
:1016100099F4109761F012960C93129713961C93FD
:101620003296CF01DF91CF911F910F9108950093D2
:101630001B0510931C05F4CF2115310551F04217FD
:10164000530738F0A901DB019A01BD01DF01F80160
:10165000C1CFEF01F9CF90931C0580931B05CDCF2F
:10166000FE01E20FF31F81939193225031093983D8
:101670002883D7CF2091190530911A05232B41F4E7
:10168000209102013091030130931A05209319052E
:1016900020910001309101012115310541F42DB750
:1016A0003EB74091040150910501241B350BE09198
:1016B0001905F0911A05E217F307A0F42E1B3F0B52
:1016C0002817390778F0AC014E5F5F4F24173507B4
:1016D00048F04E0F5F1F50931A05409319058193F0
:1016E00091939FCFF0E0E0E09CCFCF93DF93009702
:1016F000E9F0FC01329713821282A0911B05B09190
:101700001C05ED0130E020E01097A1F4208131812B
:10171000820F931F2091190530911A052817390758
:1017200009F061C0F0931A05E0931905DF91CF919C
:101730000895EA01CE17DF07E8F54A815B819E0133
:1017400041155105B1F7E901FB83EA8349915991AC
:10175000C40FD51FEC17FD0761F4808191810296BB
:10176000840F951FE90199838883828193819B83EC
:101770008A83F0E0E0E012968D919C911397009798
:10178000B9F52D913C911197CD010296820F931FCF
:101790002091190530911A052817390739F6309725
:1017A00051F510921C0510921B05B0931A05A093D9
:1017B0001905BCCFD383C28340815181840F951F0B
:1017C000C817D90761F44E5F5F4F88819981480F30
:1017D000591F518340838A819B8193838283211582
:1017E000310509F0B0CFF0931C05E0931B059ECFA7
:1017F000FD01DC01C0CF13821282D7CFB0E0A0E0A0
:10180000E4E0FCE00C947C0A8C01009751F4CB01DD
:101810000E94D90A8C01C801CDB7DEB7E0E10C9473
:10182000980AFC01E60FF71F9C0122503109E217CC
:10183000F30708F49DC0D901CD91DC911197C6172B
:10184000D70798F0C530D10530F3CE01049786173D
:10185000970708F3C61BD70B2297C193D1936D93BB
:101860007C93CF010E94750BD6CF5B01AC1ABD0AE9
:101870004C018C0E9D1EA0911B05B0911C05512C96
:10188000412CF12CE12C109731F5809119059091A4
:101890001A058815990509F05CC04616570608F028
:1018A00058C08091000190910101009741F48DB7DB
:1018B0009EB74091040150910501841B950BE817D8
:1018C000F90708F055C0F0931A05E0931905F901DE
:1018D00071836083A0CF8D919C91119712966C902B
:1018E000129713967C901397A815B90559F56C01BA
:1018F00042E0C40ED11CCA14DB0420F1AC014A1929
:101900005B09DA011296159780F062827382518327
:101910004083D9016D937C93E114F10471F0D701F8
:101920001396FC93EE93129776CF22968C0F9D1F01
:10193000F90191838083F301EFCFF0931C05E093CD
:101940001B0569CF4816590608F42C017D01D30107
:101950009ACFCB010E94D90A7C01009749F0AE01D1
:10196000B8010E94BB0CC8010E94750B870153CFC0
:1019700010E000E050CFFB01DC0102C001900D92AD
:1019800041505040D8F70895FC018191861721F00D
:101990008823D9F7992708953197CF010895FB013E
:1019A000DC018D91019080190110D9F3990B0895F4
:1019B000FB01DC0101900D920020E1F70895FC018C
:1019C00081E090E00190061609F4CF010020D1F7E4
:0819D00001970895F894FFCF80
:1019D80000001D05800000000000D102F1011E0278
:1019E8001E038F022D0281020D0A003D3D3D20732A
:1019F800746F704D6F746F72732043414C4C454443
:101A0800203D3D3D00416C6C206D6F746F727320FA
:101A180073746F70706564003D3D3D207365744D4F
:101A28006F746F722043414C4C4544203D3D3D004E
:101A3800494E313D0020494E323D0020494E333D4C
:101A48000020494E343D0020454E413D0020454E82
:101A5800423D0041637475616C2070696E73202D7E
:101A680020494E313A0020494E323A0020494E333F
:101A78003A0020494E343A0020454E413A0020456C
:101A88004E423A003D3D3D2041524455494E4F207B
:101A98005354415254494E47203D3D3D0043616CEB
:101AA8006C696E6720696E69744D6F746F72732EFE
:101AB8002E2E003D3D3D20696E69744D6F746F7226
:101AC800732043414C4C4544203D3D3D00416C6CE6
:101AD800206D6F746F722070696E73207365742047
:101AE800746F204F5554505554004D6F746F727376
:101AF80020696E697469616C697A656420616E64D5
:101B08002073746F7070656400696E69744D6F74CA
:101B18006F727320636F6D706C65746564004172D9
:101B28006475696E6F20726561647921005265631E
:101B380065697665643A20005245510046697273BA
:101B48007420636F6D6D612061743A200053656382
:101B58006F6E6420636F6D6D612061743A20005070
:101B68006172736564202D20416374696F6E3A2039
:101B78002700272C204475726174696F6E3A200023
:101B88002C2053706565643A200043616C6C696E63
:101B980067206D6F746F722066756E6374696F6EFF
:101BA80020666F723A2000666F7277617264003D3A
:101BB8003D3D2043414C4C494E47206D6F7665466C
:101BC8006F7277617264203D3D3D003D3D3D206D63
:101BD8006F7665466F72776172642043414C4C455D
:101BE80044203D3D3D004D6F76696E6720666F72FB
:101BF8007761726420666F722000206D73005374E1
:101C08006F7070696E6720616674657220666F72A6
:101C180077617264206D6F76656D656E74003D3D09
:101C28003D206D6F7665466F727761726420434F11
:101C38004D504C45544544203D3D3D006261636B29
:101C480077617264003D3D3D2043414C4C494E470D
:101C5800206D6F76654261636B77617264203D3DEC
:101C68003D003D3D3D206D6F76654261636B776158
:101C780072642043414C4C4544203D3D3D006C6519
:101C88006674003D3D3D2043414C4C494E4720740D
:101C980075726E4C656674203D3D3D003D3D3D20AE
:101CA8007475726E4C6566742043414C4C454420F3
:101CB8003D3D3D007269676874003D3D3D204341EC
:101CC8004C4C494E47207475726E5269676874208F
:101CD8003D3D3D003D3D3D207475726E526967681B
:101CE800742043414C4C4544203D3D3D003D3D3D25
:101CF8002043414C4C494E472073746F704D6F74AC
:101D08006F7273203D3D3D00444F4E450045525291
:101D18004F523A20496E76616C696420636F6D6D2D
:0C1D2800616E6420666F726D61740000D3
:00000001FF
